:1000000015EF00F0EA6A060EE96EEF500DE0060EFD
:10001000016E006A002EFED7012EFBD77B0E006E0C
:10002000002EFED7EF2EF3D7000CF86AD09EEA6AB6
:10003000E96AC150C00B0F09C16E070EB46E000E05
:10004000926E936E956E956A010E8C6E956A030E94
:100050008C6E0A0E066ED6DF956A010E8C6E0A0E45
:10006000066ED0DF926A1D0E896E936A100E8A6E3C
:10007000926A1E0E896E936A440E8A6E956A8C6A25
:10008000010E066EBFDF956A010E8C6E066EBADF3A
:10009000926A1F0E896E936A010E8A6E956A8C6A47
:1000A000066EB0DF956A010E8C6E066EABDF926A4B
:1000B000200E896E936A400E8A6E956A8C6A010ED4
:1000C000066EA0DF956A010E8C6E066E9BDF926A4B
:1000D000040E896E936A150E8A6E956A8C6A010EFB
:1000E000066E90DF956A010E8C6E066E8BDF926A4B
:1000F000050E896E936A150E8A6E956A8C6A010EDA
:10010000066E80DF956A010E8C6E066E7BDF926A4A
:10011000060E896E936A990E8A6E956A8C6A010E34
:10012000066E70DF956A010E8C6E066E6BDF926A4A
:10013000070E896E936A990E8A6E956A8C6A010E13
:10014000066E60DF956A010E8C6E066E5BDF926A4A
:10015000080E896E936A990E8A6E956A8C6A010EF2
:10016000066E50DF956A010E8C6E066E4BDF926A4A
:10017000090E896E936A990E8A6E956A8C6A010ED1
:10018000066E40DF956A010E8C6E066E3BDF96921E
:100190008D82020E056EFA0E066E34DF052EFBD739
:1001A00096928D92020E056EFA0E066E2BDF052ECC
:0601B000FBD7EDD70300B0
:020000040030CA
:0E00000024CE3E1E008781000FC00FE00F408F
:00000001FF
;PIC18F4550
;CRC=3240  CREATED="14-mar.-18 14:26"
